:02000000562880
:10000800FF00030E8301A6000A08A5008A017B08E9
:10001800A2007C08A1007D08A00042200B10220845
:10002800FB002108FC002008FD0025088A00260E98
:080038008300FF0E7F0E09009A
:100040008312031386150630FB001330FC00AD301D
:10005000FD00FD0B2928FC0B2928FB0B292800009B
:10006000000086110630FB001330FC00AD30FD00AF
:10007000FD0B3828FC0B3828FB0B3828000000004B
:04008000202808002C
:1000840083120313861106160630FB001330FC009E
:10009400AD30FD00FD0B4C28FC0B4C28FB0B4C2811
:0800A400000000000612080034
:1000AC000230831603138500C8308312850001309B
:1000BC00831686008312860183168E1507308312F1
:1000CC009F0090308B0040308316810020206C28DC
:0200DC006E288C
:02400E00182177
:00000001FF
