:020000005B297A
:10000600033083120313FB008A30FC005530FD00D9
:10001600FD0B0B28FC0B0B28FB0B0B28000000002C
:1000260000302306031D192801302206031D7128FE
:100036002408F0002508F100F00DF10D701070088D
:10004600A4007108A5007008860005100230FB00A8
:100056004530FC00A930FD00FD0B2F28FC0B2F2896
:10006600FB0B2F28000000002508013A031D3D2840
:1000760000302406031D52280130A4000030A500DC
:1000860005140230FB004530FC00A930FD00FD0BD5
:100096004A28FC0B4A28FB0B4A28000000000030C7
:1000A6002506031D582800302406031D6D28051457
:1000B6000130A4000030A5000230FB004530FC00F2
:1000C600A930FD00FD0B6528FC0B6528FB0B652898
:0E00D6000000000006187128A201A301080016
:1000E400831203132408F0002508F100F00DF10D2C
:1000F40070107008A4007108A5007008860005102F
:100104000330FB008A30FC005530FD00FD0B8828CD
:10011400FC0B8828FB0B8828000000002508013A06
:10012400031D962800302406031DAB280130A400CB
:100134000030A50005140630FB001330FC00AD3080
:10014400FD00FD0BA328FC0BA328FB0BA328000038
:10015400000000302506031DB12800302406031DCD
:10016400C62805140130A4000030A5000330FB00AC
:100174008A30FC005530FD00FD0BBE28FC0BBE2868
:0A018400FB0BBE280000000008007D
:10018E000030831203132306031DCF2802302206EC
:10019E00031DFD282408F1002508F200F10DF20DD3
:1001AE0071107108A4007208A50071088600051070
:1001BE007208013A031DE52800307106031DEC2874
:1001CE000130A4000030A500051400302506031DE3
:1001DE00F22800302406031DF92805140130A4006E
:0E01EE000030A5000618FD28A201A30108009C
:1001FC000030831203132306031D06290330220645
:10020C00031D5A292408F0002508F100F00DF10D0A
:10021C0070107008A4007108A50070088600051005
:10022C000330FB008A30FC005530FD00FD0B1C290F
:10023C00FC0B1C29FB0B1C29000000002508013AB3
:10024C00031D2A2900302406031D3F290130A40078
:10025C000030A50005140630FB001330FC00AD3057
:10026C00FD00FD0B3729FC0B3729FB0B3729000050
:10027C00000000302506031D452900302406031D0F
:10028C005A2905140130A4000030A5000330FB00EE
:10029C008A30FC005530FD00FD0B5229FC0B522915
:0A02AC00FB0B5229000000000800BF
:1002B600831603138501C830831285000130831627
:1002C60086008312860183168E15073083129F00DF
:1002D600A401A501FF30A200FF30A300851403305E
:1002E600FB008A30FC005530FD00FD0B7829FC0B25
:1002F6007829FB0B78290000000085100618C7290D
:10030600A201A3018511051785170530FB000F30E3
:10031600FC00F130FD00FD0B8E29FC0B8E29FB0B3A
:100326008E290618C7290130A2000030A3008515C2
:10033600051385170530FB000F30FC00F130FD007A
:10034600FD0BA329FC0BA329FB0BA3290618C72920
:100356000230A2000030A30085150517851305306D
:10036600FB000F30FC00F130FD00FD0BB829FC0B43
:10037600B829FB0BB8290618C7290330A20000309C
:10038600A300851105138513D4297220FF30A2001E
:10039600FF30A300F4290320F429C720F429FE2006
:1003A600F42900302306031DDA290030220603193A
:1003B600C82900302306031DE2290130220603194D
:1003C600CE2900302306031DEA290230220603192E
:1003D600D02900302306031DF22903302206031913
:0603E600D2298129F5294E
:02400E00182177
:00000001FF
