:020000001628C0
:0E0006008312031323088A00220882000800D8
:1000140003208A110A128000840AA20A0319A30A7F
:08002400F003031D0A28080087
:10002C0083120313A001A101023083168500C8308E
:10003C008312850001308316860083128601831695
:10004C008E15073083129F00061830288515A00ADC
:10005C000319A10A00302106031D362801302006A1
:10006C00031D472805140230FB004530FC00A93065
:10007C00FD00FD0B3F28FC0B3F28FB0B3F2800002D
:10008C00000000302106031D4D2802302006031D00
:10009C005F28051086140230FB004530FC00A930A7
:1000AC00FD00FD0B5728FC0B5728FB0B57280000B5
:1000BC00000000302106031D652803302006031DB7
:1000CC007728861006150230FB004530FC00A9305D
:1000DC00FD00FD0B6F28FC0B6F28FB0B6F2800003D
:1000EC00000000302106031D7D2804302006031D6E
:1000FC008F28061186150230FB004530FC00A93014
:10010C00FD00FD0B8728FC0B8728FB0B87280000C4
:10011C00000000302106031D952805302006031D24
:10012C00A728861106160230FB004530FC00A930CA
:10013C00FD00FD0B9F28FC0B9F28FB0B9F2800004C
:10014C00000000302106031DAD2806302006031DDB
:10015C00BF28061286160230FB004530FC00A93081
:10016C00FD00FD0BB728FC0BB728FB0BB7280000D4
:10017C00000000302106031DC52807302006031D92
:10018C00D728861206170230FB004530FC00A93038
:10019C00FD00FD0BCF28FC0BCF28FB0BCF2800005C
:1001AC00000000302106031DDD2808302006031D49
:1001BC00EF28061386170230FB004530FC00A930EF
:1001CC00FD00FD0BE728FC0BE728FB0BE7280000E4
:1001DC00000000302106031DF52809302006031D00
:1001EC0008298613A001A1010230FB004530FC0058
:1001FC00A930FD00FD0B0029FC0B0029FB0B00298D
:08020C00000000002A28092966
:02400E000A2185
:00000001FF
